{
    "contractName": "ElastikChain",
    "abi": [
        {
            "inputs": [
                {
                    "internalType": "uint256",
                    "name": "prize",
                    "type": "uint256"
                },
                {
                    "internalType": "uint256",
                    "name": "investment",
                    "type": "uint256"
                }
            ],
            "stateMutability": "nonpayable",
            "type": "constructor"
        },
        {
            "inputs": [],
            "name": "categoryPrize",
            "outputs": [
                {
                    "internalType": "uint256",
                    "name": "",
                    "type": "uint256"
                }
            ],
            "stateMutability": "view",
            "type": "function"
        },
        {
            "inputs": [
                {
                    "internalType": "string",
                    "name": "milestoneName",
                    "type": "string"
                },
                {
                    "internalType": "address",
                    "name": "recipient",
                    "type": "address"
                }
            ],
            "name": "createRequest",
            "outputs": [],
            "stateMutability": "nonpayable",
            "type": "function"
        },
        {
            "inputs": [],
            "name": "invest",
            "outputs": [],
            "stateMutability": "payable",
            "type": "function"
        },
        {
            "inputs": [
                {
                    "internalType": "uint256",
                    "name": "",
                    "type": "uint256"
                }
            ],
            "name": "investors",
            "outputs": [
                {
                    "internalType": "address",
                    "name": "",
                    "type": "address"
                }
            ],
            "stateMutability": "view",
            "type": "function"
        },
        {
            "inputs": [],
            "name": "minimumInvestment",
            "outputs": [
                {
                    "internalType": "uint256",
                    "name": "",
                    "type": "uint256"
                }
            ],
            "stateMutability": "view",
            "type": "function"
        },
        {
            "inputs": [
                {
                    "internalType": "uint256",
                    "name": "",
                    "type": "uint256"
                }
            ],
            "name": "requests",
            "outputs": [
                {
                    "internalType": "string",
                    "name": "milestoneName",
                    "type": "string"
                },
                {
                    "internalType": "address",
                    "name": "recipient",
                    "type": "address"
                },
                {
                    "internalType": "bool",
                    "name": "processed",
                    "type": "bool"
                }
            ],
            "stateMutability": "view",
            "type": "function"
        },
        {
            "inputs": [
                {
                    "internalType": "uint256",
                    "name": "",
                    "type": "uint256"
                }
            ],
            "name": "sponsors",
            "outputs": [
                {
                    "internalType": "address",
                    "name": "",
                    "type": "address"
                }
            ],
            "stateMutability": "view",
            "type": "function"
        },
        {
            "inputs": [],
            "name": "teamLead",
            "outputs": [
                {
                    "internalType": "address",
                    "name": "",
                    "type": "address"
                }
            ],
            "stateMutability": "view",
            "type": "function"
        },
        {
            "inputs": [
                {
                    "internalType": "uint256",
                    "name": "",
                    "type": "uint256"
                }
            ],
            "name": "users",
            "outputs": [
                {
                    "internalType": "address",
                    "name": "",
                    "type": "address"
                }
            ],
            "stateMutability": "view",
            "type": "function"
        },
        {
            "inputs": [],
            "name": "vote",
            "outputs": [],
            "stateMutability": "nonpayable",
            "type": "function"
        },
        {
            "inputs": [],
            "name": "voteCount",
            "outputs": [
                {
                    "internalType": "uint256",
                    "name": "",
                    "type": "uint256"
                }
            ],
            "stateMutability": "view",
            "type": "function"
        }
    ],
    "bytecode": "608060405234801561001057600080fd5b506040516107413803806107418339818101604052604081101561003357600080fd5b508051602090910151600480546001600160a01b031916331790556001919091556002556106db806100666000396000f3fe60806040526004361061009c5760003560e01c80637c2b8e88116100645780637c2b8e881461020d57806381d12c581461022257806393066b4c146102dd578063c638407114610307578063e8b5e51f1461031c578063f4f0b4a8146103245761009c565b80632b925b25146100a1578063325010df146100c8578063365b98b2146101885780633feb5f2b146101ce578063632a9a52146101f8575b600080fd5b3480156100ad57600080fd5b506100b6610339565b60408051918252519081900360200190f35b3480156100d457600080fd5b50610186600480360360408110156100eb57600080fd5b81019060208101813564010000000081111561010657600080fd5b82018360208201111561011857600080fd5b8035906020019184600183028401116401000000008311171561013a57600080fd5b91908080601f016020809104026020016040519081016040528093929190818152602001838380828437600092019190915250929550505090356001600160a01b0316915061033f9050565b005b34801561019457600080fd5b506101b2600480360360208110156101ab57600080fd5b503561041b565b604080516001600160a01b039092168252519081900360200190f35b3480156101da57600080fd5b506101b2600480360360208110156101f157600080fd5b5035610442565b34801561020457600080fd5b5061018661044f565b34801561021957600080fd5b506100b661045a565b34801561022e57600080fd5b5061024c6004803603602081101561024557600080fd5b5035610460565b6040518080602001846001600160a01b031681526020018315158152602001828103825285818151815260200191508051906020019080838360005b838110156102a0578181015183820152602001610288565b50505050905090810190601f1680156102cd5780820380516001836020036101000a031916815260200191505b5094505050505060405180910390f35b3480156102e957600080fd5b506101b26004803603602081101561030057600080fd5b5035610529565b34801561031357600080fd5b506100b6610536565b61018661053c565b34801561033057600080fd5b506101b26105c0565b60025481565b6004546001600160a01b0316331461035657600080fd5b61035e6105cf565b50604080516060810182528381526001600160a01b03831660208083019190915260009282018390528254600181018455928052815180519293849360029091027f290decd9548b62a8d60345a988386fc84ba6bc95484008f6362f93160ef3e56301926103d09284929101906105ef565b506020820151600190910180546040909301511515600160a01b0260ff60a01b196001600160a01b039093166001600160a01b03199094169390931791909116919091179055505050565b6007818154811061042857fe5b6000918252602090912001546001600160a01b0316905081565b6006818154811061042857fe5b600380546001019055565b60015481565b6000818154811061046d57fe5b60009182526020918290206002918202018054604080516001831615610100026000190190921693909304601f8101859004850282018501909352828152909350918391908301828280156105035780601f106104d857610100808354040283529160200191610503565b820191906000526020600020905b8154815290600101906020018083116104e657829003601f168201915b505050600190930154919250506001600160a01b0381169060ff600160a01b9091041683565b6005818154811061042857fe5b60035481565b600254341161057c5760405162461bcd60e51b81526004018080602001828103825260238152602001806106836023913960400191505060405180910390fd5b600680546001810182556000919091527ff652222313e28459528d920b65115c16c04f3efc82aaedc97be59f3f377c0d3f0180546001600160a01b03191633179055565b6004546001600160a01b031681565b604080516060808201835281526000602082018190529181019190915290565b828054600181600116156101000203166002900490600052602060002090601f016020900481019282601f1061063057805160ff191683800117855561065d565b8280016001018555821561065d579182015b8281111561065d578251825591602001919060010190610642565b5061066992915061066d565b5090565b5b80821115610669576000815560010161066e56fe5765206b6e6f7720796f752063616e20696e76657374206d6f72652074686174203a29a264697066735822122050ef697eab5a5abdda4e88110f504aaddcdc27fa6775e04046ed1978f3f08fb464736f6c63430007000033",
    "sourcePath": "e:/Babylone/elastikchain/contracts/ElastikChain.sol",
    "compiler": {
        "name": "solc",
        "version": "0.7.0+commit.9e61f92b"
    },
    "functionHashes": {
        "categoryPrize()": "7c2b8e88",
        "createRequest(string,address)": "325010df",
        "invest()": "e8b5e51f",
        "investors(uint256)": "3feb5f2b",
        "minimumInvestment()": "2b925b25",
        "requests(uint256)": "81d12c58",
        "sponsors(uint256)": "93066b4c",
        "teamLead()": "f4f0b4a8",
        "users(uint256)": "365b98b2",
        "vote()": "632a9a52",
        "voteCount()": "c6384071"
    },
    "gasEstimates": {
        "creation": {
            "codeDepositCost": "351000",
            "executionCost": "infinite",
            "totalCost": "infinite"
        },
        "external": {
            "categoryPrize()": "998",
            "createRequest(string,address)": "infinite",
            "invest()": "infinite",
            "investors(uint256)": "2037",
            "minimumInvestment()": "999",
            "requests(uint256)": "infinite",
            "sponsors(uint256)": "2014",
            "teamLead()": "1147",
            "users(uint256)": "2015",
            "vote()": "21048",
            "voteCount()": "1064"
        }
    }
}